00100000 201234567800019000000001234 00001234567 MARTINS TURISMO LTDA  BANCO DO BRASIL        130120260428230000010900024000                                                                                                                      
00100011C0100 201234567800019000000001234 00001234567 MARTINS TURISMO LTDA  FOLHA DE PAGAMENTO                      1301202615012026                                                                                                                
0010001300001A 005678 00006543211 11000012345678901JOAO SILVA SANTOS     0000000000000000000000004500000000000 000000000000000                     0000                                        00000000                                         
0010001300002A 005678 00006543222 11000089012345678FERNANDA ALVES        0000000000000000000000002200000000000 000000000000000                     0000                                        00000000                                         
0010001300003A 005678 00006543233 11000078901234567ROBERTO CARLOS SOUZA  0000000000000000000000004200000000000 000000000000000                     0000                                        00000000                                         
0010001300004A 005678 00006543244 11000067890123456JULIANA FERNANDES     0000000000000000000000001800000000000 000000000000000                     0000                                        00000000                                         
0010001300005A 005678 00006543255 11000056789012345PEDRO HENRIQUE LIMA   0000000000000000000000003000000000000 000000000000000                     0000                                        00000000                                         
00100015         000007000000000001570000000000000000000000000000000000000000000000000000000000                                                                                                                                                 
00199999         000001000009                                                                                                                                                                                                                   